:100000000C94DB000C9403010C9403010C94030189
:100010000C9403010C9403010C9403010C94030150
:100020000C9403010C9403010C9477050C94E605E1
:100030000C9403010C9403010C9403010C94030130
:100040000C9403010C9462080C9403010C940301BA
:100050000C9403010C9403010C9403010C941808F4
:100060000C9403010C9403010C9403010C94030100
:100070000C9403010C9403010C9403010C940301F0
:100080000C9403010C9403010C9403010C940301E0
:100090000C9403010C9403010C9403010C940301D0
:1000A0000C9403010C9403010C940301070605044E
:1000B0000100080A0B0C0D090000000024002700B5
:1000C0002A002D00300000000000250028002B0031
:1000D0002E003100000000002300260029002C0023
:1000E0002F000404040404030405020202020403B2
:1000F00002020202060606060606040402020204C2
:100100000404080201104080401020408040800814
:100110000204018040201002011080102040402085
:100120000000000200090F0000030401000C0000A1
:1001300000000000000000000000000000000008B7
:100140000B0002020200000904000001020200008C
:1001500005240010010524010101042402060524E0
:100160000600010705810310004009040100020A8E
:10017000000000070502024000000705830240005E
:10018000000403090412010002EF0201404123367A
:100190008000010102030141726475696E6F204C99
:1001A0004C430041726475696E6F204C656F6E61DF
:1001B00072646F00130911241FBECFEFDAE0DEBFB7
:1001C000CDBF11E0A0E0B1E0E2E4F6E102C00590AD
:1001D0000D92A03FB107D9F722E0A0EFB1E001C036
:1001E0001D92AA38B207E1F710E0CBEDD0E004C0D1
:1001F0002197FE010E94190BCA3DD107C9F70E9441
:1002000039090C941F0B0C940000FC018091210211
:10021000882311F13FB7F89482E08093E9002091A0
:10022000F200822F90E01816190614F481E090E095
:10023000882339F0289844E6409320024091F10049
:100240004083222339F02091F200211103C02BE6D4
:100250002093E8003FBF08958FEF9FEF08952FB7D9
:10026000F89483E08093E9009091E800892F8072F0
:1002700095FF04C09091F20080E4891B2FBF089580
:100280008091180281110DC082E08093140284E0F5
:1002900080931502109217021092160281E080934B
:1002A000180284E192E008954091FE015091FF010F
:1002B0002091FC013091FD0142175307B4F4909155
:1002C000E8009570E1F39091E80092FD19C08093E9
:1002D000F1008091FE019091FF0101968F739927A3
:1002E000892B19F48EEF8093E8008091FE019091A4
:1002F000FF0101969093FF018093FE0181E0089534
:1003000080E00895EF92FF920F931F93CF93DF93B6
:10031000F82E192FE62E042F81E0860F880F0E94F9
:10032000540183E00E945401CF2DD12FEC0EFD2EFD
:10033000F11CCE15DF05B9F007FF13C0FE01849153
:100340000E945401182F80E00E94540181232196BD
:100350008111EFCFDF91CF911F910F91FF90EF901F
:1003600008958881EDCF81E0F5CFDF92EF92FF9283
:100370000F931F93CF93DF93D82E8A01EB017B015C
:10038000E40EF51ECE15DF0559F0D7FE12C0FE01B2
:1003900084910E94540121968111F4CF0FEF1FEF39
:1003A000C801DF91CF911F910F91FF90EF90DF90E7
:1003B00008958881EECF0F931F93CF93DF931F9201
:1003C000CDB7DEB782E0898342E450E06FE371E0AD
:1003D00080E80E94B5010E944001DC0112960D9157
:1003E0001C910115110589F0D801ED91FC91028055
:1003F000F381E02DBE016F5F7F4FC801099597FD26
:1004000004C0F80100851185ECCF89810F90DF9140
:10041000CF911F910F910895615030F02091F1001C
:10042000FC0120830196F8CF289884E6809320026F
:100430000895CF93DF931F92CDB7DEB76983DC01B8
:10044000ED91FC910280F381E02D41E050E0BE018E
:100450006F5F7F4F09950F90DF91CF91089583E0F3
:100460008093E9008091F200882319F08AE3809359
:10047000E80008950E942F0190E00895CF93DF9344
:100480001F92CDB7DEB7FC018485958597FD08C026
:100490002FEF3FEF358724870F90DF91CF9108959D
:1004A000CE0101960E940501019719F4898190E01F
:1004B000F3CF8FEF9FEFF0CF0F931F93CF93DF9387
:1004C0001F92CDB7DEB78C01FC018485958597FF1F
:1004D0000BC0CE0101960E940501019771F489813C
:1004E00090E0F80195878487F801848595850F90C1
:1004F000DF91CF911F910F9108958FEF9FEFF1CF73
:10050000FC018485958597FD0BC09FB7F89482E028
:100510008093E9008091F2009FBF90E001960895DA
:100520009FB7F89482E08093E9008091F2009FBF2A
:1005300090E0089581508F3008F047C0E82FF0E038
:10054000EC55FD4F0C94190BC102C502B302B90260
:10055000BD02E502E502E502C802CE02D202D602E1
:10056000DC02E502E002809180008F7780938000BA
:100570000895809180008F7DF9CF80918000877FE2
:10058000F5CF84B58F7784BD089584B58F7DFBCF7B
:10059000809190008F7780939000089580919000D3
:1005A0008F7DF9CF80919000877FF5CF8091C0003B
:1005B0008F778093C00008958091C0008F7DF9CF20
:1005C0008091C200877F8093C2000895CF93DF930C
:1005D000282F30E0F901E05EFE4F8491F901EF5FD2
:1005E000FE4FD491F901EE51FF4FC491CC23A1F0FD
:1005F00081110E949A02EC2FF0E0EE0FFF1FEC52E7
:10060000FF4FA591B491EC91ED2381E090E009F4C6
:1006100080E0DF91CF91089580E090E0FACF1F93C2
:10062000CF93DF93282F30E0F901E05EFE4F8491F5
:10063000F901EF5FFE4FD491F901EE51FF4FC491E4
:10064000CC23A9F0162F81110E949A02EC2FF0E022
:10065000EE0FFF1FEA53FF4FA591B4918FB7F894A7
:10066000EC91111108C0D095DE23DC938FBFDF9190
:10067000CF911F910895DE2BF8CFCF93DF9390E0B9
:10068000FC01EF5FFE4F24918E519F4FFC0184913E
:100690008823D1F090E0880F991FFC01E854FF4FA8
:1006A000A591B491FC01EA53FF4FC591D4916230FA
:1006B00071F49FB7F8943C91822F809583238C939B
:1006C000E8812E2B28839FBFDF91CF9108958FB7AC
:1006D000F894EC912E2B2C938FBFF6CF3FB7F89464
:1006E0008091F8019091F901A091FA01B091FB017C
:1006F00026B5A89B05C02F3F19F00196A11DB11D7D
:100700003FBFBA2FA92F982F8827BC01CD01620FB8
:10071000711D811D911D42E0660F771F881F991F73
:100720004A95D1F70895CF92DF92EF92FF920E94FF
:100730006E036B017C010E946E036C197D098E09AA
:100740009F09683E734081059105A8F3FF90EF90E3
:10075000DF90CF9008958F929F92AF92BF92CF92E9
:10076000DF92EF92FF920F931F93CF93DF936C0171
:100770007B018A0180910B01882309F458C0809184
:100780002102882309F453C08091020280FF05C032
:100790008091E00082608093E000E801B12C8AEF54
:1007A000A82E93E0892E2AE3922E209711F4BB20E5
:1007B000B9F10E942F01811106C0AA94AA20B9F1B3
:1007C0000E949303F2CF8C171D0611F00CF08C2FB2
:1007D0009FB7F8948092E9002091E80025FD02C0BF
:1007E0009FBFE3CF282F30E0C21BD30BF70181500E
:1007F00020F041914093F100FACFE20EF31EBB20AE
:1008000021F09092E800B12CEBCF8091E80085FDBB
:10081000E7CF9092E800BB24B394209709F3F3CF7D
:100820005D9884E680930102101611063CF081E089
:1008300090E0F6019383828310E000E0C801DF912D
:10084000CF911F910F91FF90EF90DF90CF90BF90CD
:10085000AF909F908F9008952FB7F8946091F40116
:100860007091F5018091F6019091F7012FBF0895E5
:10087000CF92DF92EF92FF921F93CF93DF93EC0121
:10088000E881E23108F0E251F0E0E455FF4FE491F5
:1008900090917B008E2F880F880F80729F7D892B0F
:1008A00080937B00E770E064E0937C0080917A00A5
:1008B000806480937A0080917A0086FDFCCF9091CD
:1008C0007800809179002D81892798278927892BA5
:1008D000F1F5211128C00E942C04C980DA80EB8038
:1008E000FC806C197D098E099F09643671058105AC
:1008F0009105C8F081E08D830E942C0469837A837E
:100900008B839C8311E0812FDF91CF911F91FF900A
:10091000EF90DF90CF9008950E942C0469837A8332
:100920008B839C83F0CF1D81112379F00E942C04CE
:10093000C980DA80EB80FC806C197D098E099F09E3
:10094000643F71408105910538F710E0DCCF222328
:10095000E1F31D820E942C0469837A838B839C833C
:10096000F4CFCF92DF92EF92FF921F93CF93DF935A
:10097000EC0188810E94E6022D81892BF1F521117D
:1009800028C00E942C04C980DA80EB80FC806C199E
:100990007D098E099F096436710581059105C8F0AE
:1009A00081E08D830E942C0469837A838B839C83EE
:1009B00011E0812FDF91CF911F91FF90EF90DF9099
:1009C000CF9008950E942C0469837A838B839C8343
:1009D000F0CF1D81112379F00E942C04C980DA80A8
:1009E000EB80FC806C197D098E099F09643F714082
:1009F0008105910538F710E0DCCF2223E1F31D8259
:100A00000E942C0469837A838B839C83F4CFFC013E
:100A100001900020E9F73197AF01481B590BBC0149
:100A200082E292E00C94AB03CF93DF930E94070520
:100A3000EC0185E291E00E9407058C0F9D1FDF917C
:100A4000CF9108950F931F93CF93C82F87E00E94F3
:100A5000E6028C0181E00115110509F080E0809328
:100A6000F00184E00E94E602012B61F5892B51F52B
:100A7000CC23C9F0809105028823A9F081E08093FE
:100A8000110288E291E00E94140580910502909184
:100A90000402992339F181111FC081E08093100273
:100AA00089E591E00AC01092110287E391E00E946B
:100AB0001405C111EACF85E491E0CF911F910F9108
:100AC0000C941405109211021092100283E991E027
:100AD0000E941405CC2379F390E080E0CF911F9120
:100AE0000F9108958111F8CF88E691E0E6CF1F922B
:100AF0000F920FB60F9211248F939F938091E10074
:100B00009091E100937F9093E10083FF0FC01092DA
:100B1000E90091E09093EB001092EC0092E3909347
:100B2000ED001092210298E09093F00082FF22C025
:100B300093E09093E9009091F200992319F09AE3E1
:100B40009093E80090910102992341F09091010265
:100B5000915090930102911101C05D9A90912002F1
:100B6000992341F09091200291509093200291118D
:100B700001C0289A84FF18C08091E2008E7E8160B7
:100B80008093E2008091E1008F7E8093E10080916C
:100B900002028E7E8061809302029F918F910F905E
:100BA0000FBE0F901F90189580FFF7CF8091E20045
:100BB0008E7E80618093E2008091E1008E7E809342
:100BC000E100809102028E7E8160E5CF1F920F923C
:100BD0000FB60F921124CF92DF92EF92FF920F93F4
:100BE0001F932F933F934F935F936F937F938F93B5
:100BF0009F93AF93BF93EF93FF93CF93DF93CDB7C3
:100C0000DEB76C97DEBFCDBF1092E9008091E8009F
:100C100083FF25C068E0CE0145960E940C0282EF5A
:100C20008093E8008D8987FF39C09091E80090FF9C
:100C3000FCCF982F907609F034C19E894F89588D4A
:100C40002F89F88C911131C0803861F580910302B1
:100C50008093F1001092F1008EEF8093E8006C9683
:100C60000FB6F894DEBF0FBECDBFDF91CF91FF91DD
:100C7000EF91BF91AF919F918F917F916F915F9114
:100C80004F913F912F911F910F91FF90EF90DF9027
:100C9000CF900F900FBE0F901F9018959EEF9093DE
:100CA000E800C7CF1092F100D5CF913059F48111EF
:100CB000D3CF4130510581F6809103028D7F80931F
:100CC0000302CACF933049F48111C6CF4130510598
:100CD00019F6809103028260F2CF953041F4809141
:100CE000E80080FFFCCF20682093E300B5CF96306A
:100CF00009F0A9C00B8D1C8D22E01092E900109222
:100D0000FF011092FE01F2122EC01092FD0110920E
:100D1000FC010E94DB011F8299E09983FA8291E035
:100D20009E8390EA98879AEF99872091FE013091EF
:100D3000FF01275F3F4F3C832B838D831092E90097
:100D40001092FF011092FE011093FD010093FC012F
:100D500049E050E0BE016F5F7F4F80E00E94B50127
:100D60000E94DB0179CF1093FD010093FC010E94EA
:100D70004001DC0112960D911C910115110509F439
:100D800051C1D801ED91FC910480F581E02DBE01A7
:100D90006B5E7F4FC8010995009709F03EC1F801CD
:100DA00000851185EACFF3E0FF120EC08F898823FA
:100DB00009F440C0823061F440E860E183EA91E0E8
:100DC0000E948201811148CF81E28093EB0047CFDE
:100DD000813029F440E86BE087E991E0F1CF83307E
:100DE00099F70E944001DC011296ED90FC908E0173
:100DF0000F5F1F4F6801E114F10479F0D701ED9105
:100E0000FC910680F781E02DB801C7010995080F14
:100E1000111DF701E084F184EECFD8011C92F60198
:100E200001900020E9F73197BF016C197D0940E07E
:100E3000C601C6CF61E871E0FB01449150E080E853
:100E40000E94B50109CF973009F4BECF983021F444
:100E500081E08093F10000CF993009F0FDCE8370DE
:100E600009F0B2CFEDE0F1E081E031E096E32191CD
:100E7000222371F08093E9003093EB00DF0111979A
:100E80002C912093EC009093ED008F5F873079F7E1
:100E90008EE78093EA001092EA008F898093210206
:100EA000DBCE8B8D9C8D1092E9001092FF01109289
:100EB000FE019093FD018093FC01898D811192C008
:100EC0008E899D89913A49F4813209F07DCF47E0BE
:100ED00050E064E071E080E0B3CF913209F074CF6C
:100EE000833269F48F89988DB0E0A0E0809300018F
:100EF00090930101A0930201B0930301ADCE803223
:100F000069F48091E80082FFFCCF67E084E091E023
:100F10000E940C028BEF8093E8009ECE823209F093
:100F20009BCE8F8980930B01EEEFFFE78591949123
:100F30008B3F9C4D51F1E0E0F8E0809104019091ED
:100F40000501A0910601B0910701803B9440A105E5
:100F5000B105F1F480910B0180FD1AC0EE3F8AE0EB
:100F6000F80789F587E797E7918380838091600090
:100F70008093000288E19BE00FB6F894A8958093D7
:100F800060000FBE9093600067CEEEEFFAE0D5CF21
:100F9000808191818737974709F05ECEA89580912F
:100FA00060008861809360008091000280936000FF
:100FB000EE3F2AE0F20789F08091FE0A9091FF0A45
:100FC0009183808349CE808191818737980751F240
:100FD0009093FF0A8093FE0AC5CF1092FF0A1092E9
:100FE000FE0A3ACE0E944001DC0112960D911C913E
:100FF0000115110509F4E8CED801ED91FC9101909D
:10100000F081E02DBE016B5E7F4FC8010995811113
:1010100023CEF80100851185EBCF181619060CF4C4
:101020001BCED2CEF1E0FF12BECE65E871E004CF58
:101030001F920F920FB60F9211242F933F938F930D
:101040009F93AF93BF938091F4019091F501A0918C
:10105000F601B091F7013091F30123E0230F2D3712
:1010600058F50196A11DB11D2093F3018093F40161
:101070009093F501A093F601B093F7018091F801E8
:101080009091F901A091FA01B091FB010196A11D87
:10109000B11D8093F8019093F901A093FA01B093E8
:1010A000FB01BF91AF919F918F913F912F910F9035
:1010B0000FBE0F901F90189526E8230F0296A11DD2
:1010C000B11DD2CF1F920F920FB60F921124CF9263
:1010D000DF92EF92FF920F931F932F933F934F93C3
:1010E0005F936F937F938F939F93AF93BF93EF9390
:1010F000FF93CF93DF93CDB7DEB7A197DEBFCDBF10
:1011000080910A028823D1F08091F2018F5F809351
:10111000F2011091F201113089F482E00E94E6029E
:10112000892B31F010920A021092050210930902E5
:101130008BED91E00E9414051092F201809108025B
:101140008130B1F52091070230E050E040E019A273
:101150008E010F5D1F4F8AE0C82ED12CE12CF12C9F
:10116000CA01B901A70196010E94F70A605DF80162
:1011700062938F01211531054105510589F730979B
:1011800019F0CF010E94070585E291E00E94070552
:10119000809107028F5F80930702809107028F3052
:1011A00039F41092070281E080930602109208023F
:1011B000809109028823C1F08091F1018F5F8093B3
:1011C000F1018091F101813079F483E00E94E6021F
:1011D000892B21F0109209021092040285EE91E011
:1011E0000E9414051092F101A1960FB6F894DEBF8B
:1011F0000FBECDBFDF91CF91FF91EF91BF91AF9126
:101200009F918F917F916F915F914F913F912F911E
:101210001F910F91FF90EF90DF90CF900F900FBE36
:101220000F901F901895E2E2F2E01382128288EE8E
:1012300093E0A0E0B0E084839583A683B78387E141
:1012400091E0918380838FEF9FEF958784878CE077
:101250008093840262E00E943D038DE080937E02D1
:1012600062E00E943D031092780281E08093720256
:101270000895789484B5826084BD84B5816084BD0E
:1012800085B5826085BD85B5816085BD80916E0024
:10129000816080936E001092810080918100826055
:1012A0008093810080918100816080938100809192
:1012B00080008160809380008091910082608093A3
:1012C00091008091910081608093910080919000C5
:1012D0008160809390008091C10084608093C10000
:1012E0008091C10082608093C1008091C1008160C3
:1012F0008093C1008091C30081608093C30080917E
:10130000C00082608093C0008091C20081608093A1
:10131000C20080917A00846080937A0080917A0084
:10132000826080937A0080917A00816080937A0055
:1013300080917A00806880937A0010922102109246
:101340000302109202028091D70081608093D7003F
:1013500080EA8093D80089B5806189BD89B58260B3
:1013600089BD09B400FEFDCF0E9493038091D8008F
:101370008F7C80618093D8008091E000807F809393
:10138000E0008091E1008E7E8093E1008DE080930B
:10139000E200559A209A62E080E00E943D0362E0FC
:1013A00082E00E943D0362E083E00E943D0362E030
:1013B00084E00E943D0362E087E00E943D0362E01A
:1013C00088E00E943D0362E089E00E943D038FEFC8
:1013D0009FEF90932F0280932E0261E085E00E94A0
:1013E0003D0361E086E00E943D0361E08AE00E94E7
:1013F0003D0361E081E00E943D03F894109280007B
:101400001092810088E09DE390938900809388008A
:10141000809181008860809381008091810081604B
:10142000809381008091810084608093810080910D
:101430006F00826080936F00789400E010E082E09B
:10144000E82EF12CCC24C394D12C88E00E94E60233
:10145000EC0189E00E94E602CD2B09F0C0C0D092D9
:101460001302C0921202892B21F4F0921302E0922F
:101470001202C09111026C2F85E00E940F03D091DF
:1014800010026D2F86E00E940F0360910F0281E031
:101490000E940F030E942C0480900B0290900C027B
:1014A000A0900D02B0900E02681979098A099B0973
:1014B000643F71408105910508F43DC00E942C04F1
:1014C00060930B0270930C0280930D0290930E02B6
:1014D00080911202909113028130910599F58EE767
:1014E00092E00E94B104882321F081E0D827D093B4
:1014F000100284E892E00E94B104882321F081E088
:10150000C827C093110288E792E00E943804811135
:101510001092110282E792E00E9438048111109229
:1015200010028CEB91E00E94140561E08AE00E94B9
:101530000F0310920F020115110509F486CF0E94C6
:10154000000083CF0297B1F560E08AE00E940F03AC
:1015500080E00E94E602892BC1F488EC91E00E94B1
:101560001405C1E0C0930F0280910602882351F058
:1015700087ED91E00E941405C0930A0281E00E9469
:101580002205D9CFC0930802D6CF84ED91E00E9406
:10159000140580E00E9422051092100210921102A0
:1015A0001092080210920F0281E08093050280934E
:1015B0000402C1CF61E08AE00E940F0310920A0288
:1015C00010920902109210021092110210920F0252
:1015D000109208021092070210920602ACCF892BDB
:1015E00009F443CF109213021092120242CFA1E2EB
:1015F0001A2EAA1BBB1BFD010DC0AA1FBB1FEE1F8D
:10160000FF1FA217B307E407F50720F0A21BB30BD7
:10161000E40BF50B661F771F881F991F1A9469F753
:1016200060957095809590959B01AC01BD01CF01AF
:101630000895EE0FFF1F0590F491E02D0994F894A2
:02164000FFCFDA
:10164200FFFFFFFF00E100000000000000C18081F9
:10165200000000000000001902AB033A022F0280D2
:10166200023E025C020D0A00456E67696E6520311A
:1016720020737461727400456E67696E6520312053
:1016820053746F700053746F7070696E6720746862
:1016920065206D6F746F727300456E67696E6520A9
:1016A20032207374617274005468652066697273C3
:1016B2007420616E64207365636F6E6420656E676B
:1016C200696E6520646964206E6F74207374617240
:1016D200742E00466174616C206572726F722E20E6
:1016E2004E6F207761746572206F72206C6F772065
:1016F200707265737375726521212100536572766C
:101702006963654D6F646500D09FD0BED0B6D0B01E
:10171200D18031004E6F20736F730056616C756516
:10172200205041310056616C7565205041320000F5
:00000001FF
